:100000000C9434000C9451000C9451000C94510049
:100010000C9451000C9451000C9451000C9451001C
:100020000C9451000C9451000C9451000C9451000C
:100030000C9451000C9451000C9451000C945100FC
:100040000C9451000C9451000C9451000C945100EC
:100050000C9451000C9451000C9451000C945100DC
:100060000C9451000C94510011241FBECFEFD8E026
:10007000DEBFCDBF11E0A0E0B1E0E6E1F3E002C0F9
:1000800005900D92A832B107D9F711E0A8E2B1E0CE
:1000900001C01D92AB32B107E1F70E94F3000C944E
:1000A00089010C940000982F92959F709BB95D9ADE
:1000B0005C9A24EF31E0F9013197F1F75C98F9018E
:1000C0003197F1F78F708BB95D9A5C9AC9010197EE
:1000D000F1F75C98C9010197F1F70895982F92956F
:1000E0009F709BB95D985C9A24EF31E0F9013197DC
:1000F000F1F75C98F9013197F1F78F708BB95C9A41
:10010000C9010197F1F75C98C9010197F1F70895CA
:1001100081E00E946E00089582E00E946E000895C2
:1001200088E00E946E0008958CE00E946E000895A1
:100130008EE00E946E0008958DE00E946E0008958A
:100140008FE00E946E00089580E80E946E0008957E
:1001500080EC0E946E000895662319F0613019F456
:10016000805C809328018091280180680E946E0045
:100170000895CF93DF93EC0103C00E9453002196B2
:1001800088818823D1F7DF91CF9108958FEF8AB9C5
:1001900080E197E20197F1F724E02BB95C9A8AEFAE
:1001A00090E0FC013197F1F75C98FC013197F1F791
:1001B0002BB95C9AFC013197F1F75C98FC013197FF
:1001C000F1F72BB95C9AFC013197F1F75C98019734
:1001D000F1F788E20E946E008CE00E946E0081E0E0
:1001E0000E946E0008959F92AF92BF92CF92DF92CD
:1001F000EF92FF920F931F93DF93CF9300D00F9254
:10020000CDB7DEB70E94C60080E091E00E94B90041
:1002100080E061E00E94AC008FE091E00E94B900B4
:10022000219A2098289A00E010E0EE24FF2492E022
:10023000992E84EFA82E81E0B82E6E010894C11C7F
:10024000D11C189B03C000E010E00DC0012B49F445
:1002500085B1892585B90894E11CF11CC501019778
:10026000F1F701E010E080E061E00E94AC008AE17B
:1002700091E00E94B900C701B6014AE050E00E9437
:1002800044010E94B900DDCFFB019F01E894423098
:10029000C4F04532B4F44A3029F497FB1EF490952B
:1002A00081959F4F642F77270E947501805D8A3367
:1002B0000CF0895D8193CB010097A1F716F45DE204
:1002C00051931082C9010C946501DC01FC01672F78
:1002D00071917723E1F7329704C07C916D9370831D
:1002E0006291AE17BF07C8F30895AA1BBB1B51E16B
:1002F00007C0AA1FBB1FA617B70710F0A61BB70B96
:10030000881F991F5A95A9F780959095BC01CD013A
:060310000895F894FFCFF0
:1003160047756E6E6172204B656C64657273004939
:100326004D54484531204C434400494D54484531CD
:08033600204C4344202020006C
:00000001FF
