:100000000C9434000C9451000C9451000C94510049
:100010000C9451000C9451000C9451000C9451001C
:100020000C9451000C9451000C9451000C9451000C
:100030000C9451000C9451000C9451000C945100FC
:100040000C9451000C9451000C9451000C945100EC
:100050000C9451000C9451000C9451000C945100DC
:100060000C9451000C94510011241FBECFEFD8E026
:10007000DEBFCDBF11E0A0E0B1E0E8E1F2E002C0F8
:1000800005900D92AC31B107D9F711E0ACE1B1E0C8
:1000900001C01D92AF31B107E1F70E94F3000C944B
:1000A0000A010C940000982F92959F709BB95D9A5D
:1000B0005C9A24EF31E0F9013197F1F75C98F9018E
:1000C0003197F1F78F708BB95D9A5C9AC9010197EE
:1000D000F1F75C98C9010197F1F70895982F92956F
:1000E0009F709BB95D985C9A24EF31E0F9013197DC
:1000F000F1F75C98F9013197F1F78F708BB95C9A41
:10010000C9010197F1F75C98C9010197F1F70895CA
:1001100081E00E946E00089582E00E946E000895C2
:1001200088E00E946E0008958CE00E946E000895A1
:100130008EE00E946E0008958DE00E946E0008958A
:100140008FE00E946E00089580E80E946E0008957E
:1001500080EC0E946E000895662319F0613019F456
:10016000805C80931C0180911C0180680E946E005D
:100170000895CF93DF93EC0103C00E9453002196B2
:1001800088818823D1F7DF91CF9108958FEF8AB9C5
:1001900080E197E20197F1F724E02BB95C9A8AEFAE
:1001A00090E0FC013197F1F75C98FC013197F1F791
:1001B0002BB95C9AFC013197F1F75C98FC013197FF
:1001C000F1F72BB95C9AFC013197F1F75C98019734
:1001D000F1F788E20E946E008CE00E946E0081E0E0
:1001E0000E946E0008950E94C6000E94C60080E032
:1001F00060E00E94AC0080E091E00E94B90080E0E5
:1002000061E00E94AC0080E191E00E94B90080E0D2
:0802100090E00895F894FFCF7F
:100218004A61696D7920526164656D616B65720030
:0C0228004C434420446973706C61790001
:00000001FF
