:100000000C9434000C9446000C9446000C9446006A
:100010000C9446000C9446000C9446000C94460048
:100020000C9446000C9446000C9446000C94460038
:100030000C9446000C9446000C9446000C94460028
:100040000C9446000C9446000C9446000C94460018
:100050000C9446000C9446000C9446000C94460008
:100060000C9446000C94460011241FBECFEFD8E03C
:10007000DEBFCDBF11E0A0E0B1E001C01D92AA300B
:10008000B107E1F70E9494000C9495010C940000D4
:1000900002C0000001970097E1F71092030110924F
:1000A000020108952A9802C0000001970097E1F725
:1000B000109203011092020108952B9802C00000D3
:1000C00001970097E1F71092030110920201089541
:1000D0002C9802C0000001970097E1F710920301ED
:1000E0001092020108952A9A02C000000197009719
:1000F000E1F7109203011092020108952B9A02C0B9
:10010000000001970097E1F710920301109202019D
:1001100008952C9A02C0000001970097E1F7109211
:100120000301109202010895CF93DF93229A239A3C
:10013000249A8FEF85B988EE93E090930501809320
:100140000401C4E1D0E02A98D0930901C0930801CA
:1001500017C0281B390B30930101209300010E9426
:100160005D0080910001909101010E947E008091CC
:10017000080190910901019690930901809308016B
:1001800080910801909109012091040130910501AD
:1001900082179307F0F22B98D0930901C0930801BE
:1001A00017C0821B930B90930101809300010E9462
:1001B000520080910801909109010E947300809182
:1001C000080190910901019690930901809308011B
:1001D000209108013091090180910401909105015D
:1001E00028173907F0F22B98D0930901C093080122
:1001F00017C0281B390B30930101209300010E9486
:10020000680080910001909101010E948900809115
:1002100008019091090101969093090180930801CA
:10022000809108019091090120910401309105010C
:1002300082179307F0F22C98D0930901C09308011C
:1002400017C0821B930B90930101809300010E94C1
:100250005D0080910801909109010E947E008091CB
:10026000080190910901019690930901809308017A
:1002700020910801309109018091040190910501BC
:1002800028173907F0F22C98D0930901C093080180
:1002900017C0281B390B30930101209300010E94E5
:1002A000520080910001909101010E9473008091A1
:1002B000080190910901019690930901809308012A
:1002C000809108019091090120910401309105016C
:1002D00082179307F0F22A98D0930901C09308017E
:1002E00017C0821B930B90930101809300010E9421
:1002F000680080910801909109010E948900809115
:1003000008019091090101969093090180930801D9
:10031000209108013091090180910401909105011B
:0E0320002817390708F00FCFDCCFF894FFCF75
:00000001FF
