:100000000C9434000C943E000C943E000C943E0082
:100010000C943E000C943E000C943E000C943E0068
:100020000C943E000C943E000C943E000C943E0058
:100030000C943E000C943E000C943E000C943E0048
:100040000C943E000C943E000C943E000C943E0038
:100050000C943E000C943E000C943E000C943E0028
:100060000C943E000C943E0011241FBECFEFD8E04C
:10007000DEBFCDBF0E9440000C9468000C940000CD
:100080008FE08AB9A4E028EA31E6F5E0E6E077E01F
:100090006CE05DE04EE0ABB9C9010197F1F7FBB947
:1000A000C9010197F1F7EBB9C9010197F1F77BB9E4
:1000B000C9010197F1F76BB9C9010197F1F75BB974
:1000C000C9010197F1F74BB9C9010197F1F7E3CFE6
:0400D000F894FFCFD2
:00000001FF
