:100000000C9434000C943E000C943E000C943E0082
:100010000C943E000C943E000C943E000C943E0068
:100020000C943E000C943E000C943E000C943E0058
:100030000C943E000C943E000C943E000C943E0048
:100040000C943E000C943E000C943E000C943E0038
:100050000C943E000C943E000C943E000C943E0028
:100060000C943E000C943E0011241FBECFEFD8E04C
:10007000DEBFCDBF0E946E000C94B6000C94000051
:100080002AEF30E004C00197F9013197F1F70097AA
:10009000D1F70895DC0120E04AEF50E02C9384E68C
:1000A00090E00197FA013197F1F70097D1F72F5FB0
:1000B0002F3FA1F70895DC0120E04AEF50E0822FA6
:1000C00080958C9384E690E00197FA013197F1F7DF
:1000D0000097D1F72F5F2F3F91F70895CF93DF93CC
:1000E00083E884BD82E085BD81EA809380008AE058
:1000F000809381008CE184B987E08AB928EE33E0EF
:10010000CAEFD0E005C021503040CE010197F1F791
:1001100021153105C1F788E890E00E944A0087E484
:1001200090E00E945B0088EE93E00197FE0131971A
:10013000F1F70097D1F78AE890E00E944A0088E83A
:1001400090E00E945B0088EE93E00197FE013197FA
:10015000F1F70097D1F787E490E00E944A008AE81F
:1001600090E00E945B0028EE33E0CDCFF894FFCF03
:00000001FF
