:100000000C9434000C9446000C9446000C9446006A
:100010000C9446000C9446000C9446000C94460048
:100020000C9446000C9446000C9446000C94460038
:100030000C9446000C9446000C9446000C94460028
:100040000C9446000C9446000C9446000C94460018
:100050000C9446000C9446000C9446000C94460008
:100060000C9446000C94460011241FBECFEFD8E03C
:10007000DEBFCDBF11E0A0E0B1E001C01D92A23013
:10008000B107E1F70E9448000C94A2000C94000014
:1000900080EE84B980917A00876080937A008091A5
:1000A0007C00806480937C0080917C008F778093BB
:1000B0007C0080917A00806280937A0080917A003F
:1000C000806880937A0080917A00806480937A00BF
:1000D00040E157E270E460E22091780030917900CD
:1000E0002E37310538F4CA010197F1F72F9885B101
:1000F000872724C0C9018F5790408F37910548F456
:10010000CA010197F1F785B185B92E9885B1862787
:1001100017C02F5F30402150314050F4CA01019781
:10012000F1F785B1805885B985B185B92D98D4CFBF
:10013000CA010197F1F785B185B985B185B985B156
:0801400085B9CACFF894FFCF86
:00000001FF
