:100000000C9434000C943E000C943E000C943E0082
:100010000C943E000C943E000C943E000C943E0068
:100020000C943E000C943E000C943E000C943E0058
:100030000C943E000C943E000C943E000C943E0048
:100040000C943E000C943E000C943E000C943E0038
:100050000C943E000C943E000C943E000C943E0028
:100060000C943E000C943E0011241FBECFEFD8E04C
:10007000DEBFCDBF0E9499000C94B9000C94000023
:10008000AC018130910581F488EF8BB980E785B9A7
:1000900020ED37E0F9013197F1F788E88BB915B811
:1000A000F9013197F1F739C082309105A1F480E56B
:1000B0008BB988EA85B920ED37E0C9010197F1F7DE
:1000C00080E28BB980E785B9C9010197F1F788E82B
:1000D0008BB988ED0EC08330910569F498EF9BB918
:1000E00080E585B920E23EE4F9013197F1F79BB94B
:1000F00088EA85B90EC08430910579F488EA8BB915
:1001000015B820E23EE4C9010197F1F780E58BB90B
:1001100015B8C9010197F1F708954530510541F42B
:1001200080E78BB988E885B980EA9FE00197F1F70D
:100130000895FF920F931F93CF93DF9388EF8AB9AF
:1001400084B9FF2401E010E0C0E0D0E0C8010E94C3
:1001500040002196CA30D105C9F78FE0F81639F46E
:100160000630110571F30F5F1F4FFF24EDCFF3949D
:06017000EBCFF894FFCF75
:00000001FF
