:100000000C9434000C943E000C943E000C943E0082
:100010000C943E000C943E000C943E000C943E0068
:100020000C943E000C943E000C943E000C943E0058
:100030000C943E000C943E000C943E000C943E0048
:100040000C943E000C943E000C943E000C943E0038
:100050000C943E000C943E000C943E000C943E0028
:100060000C943E000C943E0011241FBECFEFD8E04C
:10007000DEBFCDBF0E949F000C94BB000C9400001B
:10008000AC018130910581F488EF8BB980E785B9A7
:10009000E0EDF7E03197F1F788E88BB915B8E0EAC1
:1000A000FFE03197F1F72FC082309105C1F480E570
:1000B0008BB988EA85B920ED37E0F9013197F1F77E
:1000C00080E28BB980E785B9F9013197F1F788E8CB
:1000D0008BB988ED85B9F9013197F1F719C08330F3
:1000E000910549F488EF8BB980E585B9E0E7F7E140
:1000F0003197F1F718C08430910529F488EF8BB956
:1001000088EA85B90BC04530510511F488EA04C06E
:100110004630510541F480E58BB915B880E797E189
:100120000197F1F708954730510541F480E78BB905
:1001300088E885B980E797E10197F1F708951F9363
:10014000CF93DF9388EF8AB984B910E0C1E0D0E0A3
:10015000CE010E944000CE010E944000CE010E94CC
:1001600040001F3031F4C730D1057CF7219610E0F4
:0A017000EFCF1F5FEDCFF894FFCF33
:00000001FF
