:100000000C9434000C9449000C9449000C94490061
:100010000C9449000C9449000C9449000C9449003C
:100020000C9449000C9449000C9449000C9449002C
:100030000C9449000C9449000C9449000C9449001C
:100040000C9449000C9449000C9449000C9449000C
:100050000C9449000C9449000C9449000C944900FC
:100060000C9449000C94490011241FBECFEFD8E036
:10007000DEBFCDBF11E0A0E0B1E0E0EFF4E002C0F0
:1000800005900D92A430B107D9F70E9440010C945D
:1000900076020C940000CF93DF9381309105B1F488
:1000A00020E030E078E74CED55E064E87BB915B826
:1000B000CA010197F1F76BB915B8CA010197F1F7B9
:1000C0002F5F3F4F2433310589F7D7C08230910528
:1000D00009F05AC020E82BB9A0E7A5B980E197E262
:1000E000FC013197F1F72BB9E0EBE5B9EC01219771
:1000F000F1F72BB960ED65B9EC012197F1F72BB958
:1001000050EE55B9EC012197F1F7F0E4FBB925B9B0
:10011000EC012197F1F770E27BB925B9EC01219749
:10012000F1F730E13BB925B9EC012197F1F748E04F
:100130004BB925B9EC012197F1F724E02BB955B95A
:10014000EC012197F1F72BB965B9EC012197F1F793
:100150002BB9E5B9EC012197F1F72BB9A5B9DC0171
:100160001197F1F74BB935B9DC011197F1F73BB9AC
:1001700035B9DC011197F1F77BB935B9DC0111977D
:10018000F1F7FBB935B95DC08330910509F05CC06A
:10019000A0E4ABB930E135B980E197E2FC013197D9
:1001A000F1F7E0E2EBB935B9EC012197F1F73BB992
:1001B00035B9EC012197F1F758E05BB935B9EC019D
:1001C0002197F1F724E02BB9F0E7F5B9EC0121977D
:1001D000F1F72BB970EB75B9EC012197F1F72BB959
:1001E00060ED65B9EC012197F1F72BB940EE45B907
:1001F000EC012197F1F75BB920E825B9EC012197D3
:10020000F1F73BB925B9EC012197F1F7EBB925B925
:10021000EC012197F1F7ABB925B9DC011197F1F7A2
:100220002BB945B9DC011197F1F72BB965B9DC01A0
:100230001197F1F72BB975B9DC011197F1F72BB9CB
:10024000F5B90197F1F719C00497B9F420E030E04F
:10025000F0E3E0E64CED55E074E860E9FBB9E5B9A0
:10026000CA010197F1F77BB965B9CA010197F1F7A6
:100270002F5F3F4F2433310589F7DF91CF910895E8
:100280001F93CF93DF938CEF8AB980EF84B910E08E
:10029000C1E0D0E0CE010E944B001F3051F40E941B
:1002A000D30164E070E00E945B01EC01219610E054
:1002B000F1CF1F5FEFCF97FB092E07260AD077FDFE
:1002C00004D00CD006D000201AF4709561957F4FB1
:1002D0000895F6F7909581959F4F0895AA1BBB1B33
:1002E00051E107C0AA1FBB1FA617B70710F0A61B36
:1002F000B70B881F991F5A95A9F780959095BC0157
:10030000CD010895A0E0B0E0E8E8F1E00C9425020A
:10031000EC01A880B980CA80DB80A114B104C104BB
:10032000D10441F484E2A82E89EDB82E8BE5C82EC5
:1003300087E0D82EC601B5012DE133EF41E050E052
:100340000E94020227EA31E440E050E00E94E3010B
:100350007B018C01C601B5012DE133EF41E050E096
:100360000E940202CA01B9012CEE34EF4FEF5FEF99
:100370000E94E3016E0D7F1D801F911F97FF04C037
:100380006150704080409048688379838A839B8362
:100390009B013F77C901CDB7DEB7EAE00C9441027B
:1003A0000E948201089580E091E00E9482010895F8
:1003B000A0E0B0E08093000190930101A0930201BE
:1003C000B09303010895629FD001739FF001829F53
:1003D000E00DF11D649FE00DF11D929FF00D839FD4
:1003E000F00D749FF00D659FF00D9927729FB00D71
:1003F000E11DF91F639FB00DE11DF91FBD01CF0184
:100400001124089597FB092E05260ED057FD04D020
:100410004BD00AD0001C38F450954095309521956A
:100420003F4F4F4F5F4F0895F6F790958095709529
:1004300061957F4F8F4F9F4F08952F923F924F921C
:100440005F926F927F928F929F92AF92BF92CF9264
:10045000DF92EF92FF920F931F93CF93DF93CDB76D
:10046000DEB7CA1BDB0B0FB6F894DEBF0FBECDBFE5
:1004700009942A88398848885F846E847D848C84B6
:100480009B84AA84B984C884DF80EE80FD800C81BF
:100490001B81AA81B981CE0FD11D0FB6F894DEBFA2
:1004A0000FBECDBFED010895A1E21A2EAA1BBB1B02
:1004B000FD010DC0AA1FBB1FEE1FFF1FA217B30730
:1004C000E407F50720F0A21BB30BE40BF50B661F46
:1004D000771F881F991F1A9469F76095709580950A
:1004E00090959B01AC01BD01CF010895F894FFCF19
:0404F0000100000007
:00000001FF
