:100000000C9434000C943E000C943E000C943E0082
:100010000C943E000C943E000C943E000C943E0068
:100020000C943E000C943E000C943E000C943E0058
:100030000C943E000C943E000C943E000C943E0048
:100040000C943E000C943E000C943E000C943E0038
:100050000C943E000C943E000C943E000C943E0028
:100060000C943E000C943E0011241FBECFEFD8E04C
:10007000DEBFCDBF0E9435010C944C010C940000F2
:10008000CF93DF9381309105B1F40DC07BB915B8E2
:10009000CA010197F1F76BB915B8CA010197F1F7D9
:1000A0002F5F3F4F04C078E74CED55E064E82F3CEC
:1000B000310564F3D7C08230910509F05AC020E8B9
:1000C0002BB9A0E7A5B980E197E2FC013197F1F7E0
:1000D0002BB9E0EBE5B9EC012197F1F72BB960ED15
:1000E00065B9EC012197F1F72BB950EE55B9EC0148
:1000F0002197F1F7F0E4FBB925B9EC012197F1F76D
:1001000070E27BB925B9EC012197F1F730E13BB9F9
:1001100025B9EC012197F1F748E04BB925B9EC017D
:100120002197F1F724E02BB955B9EC012197F1F7AC
:100130002BB965B9EC012197F1F72BB9E5B9EC01C1
:100140002197F1F72BB9A5B9DC011197F1F74BB95C
:1001500035B9DC011197F1F73BB935B9DC011197DD
:10016000F1F77BB935B9DC011197F1F7FBB935B976
:100170005DC08330910509F05CC0A0E4ABB930E10B
:1001800035B980E197E2FC013197F1F7E0E2EBB994
:1001900035B9EC012197F1F73BB935B9EC0121975D
:1001A000F1F758E05BB935B9EC012197F1F724E09C
:1001B0002BB9F0E7F5B9EC012197F1F72BB970EB0A
:1001C00075B9EC012197F1F72BB960ED65B9EC0138
:1001D0002197F1F72BB940EE45B9EC012197F1F7E2
:1001E0005BB920E825B9EC012197F1F73BB925B9B6
:1001F000EC012197F1F7EBB925B9EC012197F1F763
:10020000ABB925B9DC011197F1F72BB945B9DC0180
:100210001197F1F72BB965B9DC011197F1F72BB9FB
:1002200075B9DC011197F1F72BB9F5B90197F1F721
:1002300019C0049771F016C0FBB9E5B9CA0101975E
:10024000F1F77BB965B9CA010197F1F72F5F3F4F0D
:1002500006C0F0E3E0E64CED55E074E860E92F3CC1
:10026000310554F3DF91CF9108951F93CF93DF931E
:100270008CEF8AB980EF84B910E0C1E0D0E0CE0104
:100280000E9440001F3031F4C430D105ACF72196F4
:0C02900010E0F5CF1F5FF3CFF894FFCF14
:00000001FF
