:100000000C9434000C943E000C943E000C943E0082
:100010000C943E000C943E000C943E000C943E0068
:100020000C943E000C943E000C943E000C943E0058
:100030000C943E000C943E000C943E000C943E0048
:100040000C943E000C943E000C943E000C943E0038
:100050000C943E000C943E000C943E000C943E0028
:100060000C943E000C943E0011241FBECFEFD8E04C
:10007000DEBFCDBF0E949F000C94AF000C94000027
:10008000AC018130910581F488EF8BB980E785B9A7
:100090002CED35E0F9013197F1F788E88BB915B807
:1000A000F9013197F1F72FC082309105C1F480E555
:1000B0008BB988EA85B928EE33E0F9013197F1F779
:1000C00080E28BB980E785B9F9013197F1F788E8CB
:1000D0008BB988ED85B9F9013197F1F719C08330F3
:1000E000910549F488EF8BB980E585B9E8EBFBE031
:1000F0003197F1F718C08430910529F488EF8BB956
:1001000088EA85B90BC04530510511F488EA04C06E
:100110004630510541F480E58BB915B888EB9BE07A
:100120000197F1F708954730510541F480E78BB905
:1001300088E885B988EB9BE00197F1F70895CF93A4
:10014000DF9388EF8AB984B9C0E0D0E081E090E025
:100150000E9440002196C630D105B4F7F7CFF8943D
:02016000FFCFCF
:00000001FF
