:100000000C9434000C943E000C943E000C943E0082
:100010000C943E000C943E000C943E000C943E0068
:100020000C943E000C943E000C943E000C943E0058
:100030000C943E000C943E000C943E000C943E0048
:100040000C943E000C943E000C943E000C943E0038
:100050000C943E000C943E000C943E000C943E0028
:100060000C943E000C943E0011241FBECFEFD8E04C
:10007000DEBFCDBF0E948C000C949C000C9400004D
:10008000AC018130910581F488EF8BB980E785B9A7
:1000900020ED37E0F9013197F1F788E88BB915B811
:1000A000F9013197F1F724C08230910551F41BB862
:1000B00015B880ED97E0FC013197F1F71BB815B842
:1000C0000AC08330910519F08430910589F41BB87A
:1000D00015B880ED97E0FC013197F1F71BB815B822
:1000E000FC013197F1F71BB815B80197F1F70895A6
:1000F0004530510581F41BB815B880ED97E0FC013F
:100100003197F1F71BB815B8FC013197F1F71BB81F
:1001100015B80197F1F70895CF93DF9388EF8AB967
:1001200084B9C0E0D0E081E090E00E9440002196D8
:0C013000CA30D105B4F7F7CFF894FFCF28
:00000001FF
