:100000000C9434000C943E000C943E000C943E0082
:100010000C943E000C943E000C943E000C943E0068
:100020000C943E000C943E000C943E000C943E0058
:100030000C943E000C943E000C943E000C943E0048
:100040000C943E000C943E000C943E000C943E0038
:100050000C943E000C943E000C943E000C943E0028
:100060000C943E000C943E0011241FBECFEFD8E04C
:10007000DEBFCDBF0E9441000C9456000C940000DE
:1000800008958FEF8AB980E387B920E081E090E09E
:1000900004C020E081E090E007C02F3029F48530D3
:1000A0009105B9F3019620E02F5FF7CFF894FFCFC9
:00000001FF
