:100000000C9434000C943E000C943E000C943E0082
:100010000C943E000C943E000C943E000C943E0068
:100020000C943E000C943E000C943E000C943E0058
:100030000C943E000C943E000C943E000C943E0048
:100040000C943E000C943E000C943E000C943E0038
:100050000C943E000C943E000C943E000C943E0028
:100060000C943E000C943E0011241FBECFEFD8E04C
:10007000DEBFCDBF0E9440000C9489000C940000AC
:100080008FEF84B9A1E02CE732E9F2E0E4E078E018
:1000900060E150E240E4B0E8A5B9C9010197F1F789
:1000A000F5B9C9010197F1F7E5B9C9010197F1F770
:1000B00075B9C9010197F1F765B9C9010197F1F760
:1000C00055B9C9010197F1F745B9C9010197F1F790
:1000D000B5B9C9010197F1F745B9C9010197F1F720
:1000E00055B9C9010197F1F765B9C9010197F1F750
:1000F00075B9C9010197F1F7E5B9C9010197F1F7A0
:10010000F5B9C9010197F1F7A5B9C9010197F1F74F
:06011000C3CFF894FFCFFD
:00000001FF
