:100000000C9434000C943E000C943E000C943E0082
:100010000C943E000C943E000C943E000C943E0068
:100020000C943E000C943E000C943E000C943E0058
:100030000C943E000C943E000C943E000C943E0048
:100040000C943E000C943E000C943E000C943E0038
:100050000C943E000C943E000C943E000C943E0028
:100060000C943E000C943E0011241FBECFEFD8E04C
:10007000DEBFCDBF0E9440000C9458000C940000DD
:10008000219A2098289A20E030E062E04AEF50E080
:10009000189B03C020E030E007C0232B19F485B182
:1000A000862785B921E030E0CA010197F1F7F0CF4A
:0400B000F894FFCFF2
:00000001FF
