:100000000C9434000C943E000C943E000C943E0082
:100010000C943E000C943E000C943E000C943E0068
:100020000C943E000C943E000C943E000C943E0058
:100030000C943E000C943E000C943E000C943E0048
:100040000C943E000C943E000C943E000C943E0038
:100050000C943E000C943E000C943E000C943E0028
:100060000C943E000C943E0011241FBECFEFD8E04C
:10007000DEBFCDBF0E9440000C9457000C940000DE
:100080008FEF8AB952E028EC30E043E05BB984EFAF
:1000900091E0F9013197F1F70197D9F74BB984EF66
:1000A00091E0F9013197F1F70197D9F7EFCFF89483
:0200B000FFCF80
:00000001FF
