:100000000C94F2000C940F010C940F010C940F014E
:100010000C940F010C940F010C940F010C940F0120
:100020000C940F010C940F010C940F010C940F0110
:100030000C940F010C940F010C940F010C940F0100
:100040000C940F010C940F010C940F010C940F01F0
:100050000C940F010C940F010C940F010C940F01E0
:100060000C940F010C940F0107634236B79BD8A77D
:100070001A39685618AEBAAB558C1D3CB7CC5763CD
:10008000BD6DEDFD753EF6177231BF000000803F7B
:1000900008000000BE922449123EABAAAA2ABECD97
:1000A000CCCC4C3E00000080BEABAAAAAA3E000009
:1000B0000000BF000000803F000000000008417801
:1000C000D3BB4387D1133D190E3CC3BD4282AD2B38
:1000D0003E68EC8276BED98FE1A93E4C80EFFFBE30
:1000E00001C4FF7F3F000000000000407A10F35A77
:1000F00000A0724E18090010A5D4E80000E8764868
:10010000170000E40B54020000CA9A3B000000E113
:10011000F505000080969800000040420F000000A6
:10012000A08601000000102700000000E803000086
:1001300000006400000000000A0000000000010050
:10014000000000002C76D888DC674F0823DFC1DF71
:10015000AE59E1B1B796E5E3E453C63AE651997674
:1001600096E8E6C28426EB898C9B62ED407C6FFCAE
:10017000EFBC9C9F40F2BAA56FA5F490055A2AF7F0
:100180005C936B6CF9676DC11BFCE0E40D47FEF5F9
:1001900020E6B500D0ED902E030094357705008061
:1001A000841E080000204E0A000000C80C333333C0
:1001B000330F986E12831141EF8D2114893BE65560
:1001C00016CFFEE6DB18D1844B381BF77C1D901D43
:1001D000A4BBE424203284725E228100C9F124ECA5
:1001E000A1E53D2711241FBECFEFD8E0DEBFCDBF74
:1001F00012E0A0E0B1E0E2E2F2E202C005900D926E
:10020000A835B107D9F713E0A8E5B2E001C01D9207
:10021000A231B107E1F70E949D060C940F110C94D6
:1002200000001F920F920FB60F9211242F938F93FD
:100230009F93EF93FF939091C0002091C600E091AF
:100240009A02EF5FEF7180919B02E81711F482E050
:1002500008C0892F8871E0939A02F0E0E858FD4FBA
:10026000208380939C02FF91EF919F918F912F911A
:100270000F900FBE0F901F9018951F920F920FB600
:100280000F9211248F939F93EF93FF939091980275
:1002900080919902981769F0E0919902EF5FEF71F0
:1002A000E0939902F0E0E85AFD4F80818093C60008
:1002B00005C08091C1008F7D8093C100FF91EF91B7
:1002C0009F918F910F900FBE0F901F9018959C01DA
:1002D000109298021092990210929A0210929B0228
:1002E00097FF04C082E08093C0003F773093C50041
:1002F0002093C40088E98093C10086E08093C20007
:10030000089590919A0280919B02981719F420E029
:1003100031E012C0E0919B02EF5FEF71E0939B022E
:10032000F0E0E858FD4F308120919C02922F80E050
:10033000AC01430F511D9A01C9010895282F9091D6
:1003400098029F5F9F71809199029817E1F3E92FBE
:10035000F0E0E85AFD4F2083909398028091C1000D
:1003600080628093C1000895CF93DF93EC0103C0B6
:1003700021960E949E0188818823D1F7DF91CF9139
:100380000895CF93DF93EC0102C00E949E01FE010D
:10039000219684918823C9F7DF91CF910895109217
:1003A000B9008AE28093B8000895982F84EA809378
:1003B000BC008091BC0087FFFCCF8091B900887F92
:1003C000883021F0803111F081E008959093BB00D6
:1003D00084E88093BC008091BC0087FFFCCF9091A3
:1003E000B900987F983111F480E0089580E090344E
:1003F00009F081E00895982F44EA34E824E9409315
:10040000BC008091BC0087FFFCCF8091B900887F41
:10041000883011F0803199F79093BB003093BC0085
:100420008091BC0087FFFCCF8091B900887F80322B
:1004300011F0883539F42093BC008091BC0084FD14
:10044000FCCFDDCF08950E94D501089584E9809303
:10045000BC008091BC0084FDFCCF08958093BB005C
:1004600084E88093BC008091BC0087FFFCCF809122
:10047000B90090E0887F883209F091E0892F0895D3
:1004800084EC8093BC008091BC0087FFFCCF8091FE
:10049000BB00089584E88093BC008091BC0087FF76
:1004A000FCCF8091BB0008959B01AC01EDE9F2E027
:1004B00084819581A681B78181939193A193B19312
:1004C00082E0E13FF807A1F72093ED023093EE02BE
:1004D0004093EF025093F002EDE9F2E020E030E0CB
:1004E00040E050E081919191A191B191280F391F85
:1004F0004A1F5B1F82E0E13FF807A1F7CA01B9017B
:1005000025E130E040E050E00E94A50BCA01B901AE
:100510000895EF92FF920F931F93CF93DF93182FBD
:10052000062FF72EE42E8EEE0E94FB01812F0E94F3
:100530002E028FEE0E942302202F3F2DC901EC01D5
:10054000FF240E2D10E0015010400DC08F2D90E0C3
:100550008017910719F40E944A0202C00E944002CB
:100560008883F3942196FE1488F30E942602DF917B
:10057000CF911F910F91FF90EF9008950F931F93CC
:10058000DF93CF9300D0CDB7DEB71A8219828AEA03
:100590008E010F5F1F4FB80142E00E9489029981CE
:1005A00080E02A8130E0822B932B90930603809386
:1005B00005038CEAB80142E00E948902998180E03B
:1005C0002A8130E0822B932B90930E0380930D03AE
:1005D0008EEAB80142E00E948902998180E02A8176
:1005E00030E0822B932B9093FA028093F90280EBF8
:1005F000B80142E00E948902998180E02A8130E0BE
:10060000822B932B9093F2028093F10282EBB8013C
:1006100042E00E948902998180E02A8130E0822BA9
:10062000932B90930A038093090384EBB80142E073
:100630000E948902998180E02A8130E0822B932BED
:10064000909302038093010386EBB80142E00E947D
:100650008902998180E02A8130E0822B932B90934C
:1006600000038093FF0288EBB80142E00E948902F8
:10067000998180E02A8130E0822B932B9093F402C1
:100680008093F3028AEBB80142E00E9489029981CB
:1006900080E02A8130E0822B932B90930803809393
:1006A00007038CEBB80142E00E948902998180E047
:1006B0002A8130E0822B932B90930C0380930B03C1
:1006C0008EEBB80142E00E948902998180E02A8184
:1006D00030E0822B932B90930403809303030F90BD
:1006E0000F90CF91DF911F910F9108950F931F935A
:1006F000182F062F8EEE0E94FB01812F0E942E02E2
:10070000802F0E942E020E9426021F910F910895B1
:10071000EF92FF920F931F93DF93CF9300D0CDB74B
:10072000DEB71A82198284EF6EE20E94760382EEAF
:1007300094E00197F1F786EFBE016F5F7F4F42E0D3
:100740000E948902698170E080E090E0982F872FF5
:10075000762F66272A8130E040E050E0622B732B31
:10076000842B952B209101033091020340E050E04F
:10077000621B730B840B950B2091090330910A03C4
:1007800040E050E00E94640B7B018C013FE0159536
:100790000795F794E7943A95D1F760910B03709120
:1007A0000C03882777FD8095982F2BE0660F771F25
:1007B000881F991F2A95D1F72091030330910403D4
:1007C000442737FD4095542F2E0D3F1D401F511FCC
:1007D0000E94A50BE20EF31E041F151FE092FB0200
:1007E000F092FC020093FD021093FE020F900F9016
:1007F000CF91DF911F910F91FF90EF9008950E948C
:1008000088036091FB027091FC028091FD0290913F
:10081000FE02685F7F4F8F4F9F4F54E095958795FD
:10082000779567955A95D1F70E946A0920E030E0E4
:1008300040E251E40E94BE0808952F923F924F92E9
:100840005F926F927F928F929F92AF92BF92CF9260
:10085000DF92EF92FF920F931F93DF93CF93CDB769
:10086000DEB727970FB6F894DEBF0FBECDBF8E015F
:100870000F5F1F4F83E0D8011D928A95E9F70E9410
:10088000880384EF64EF0E94760384E699E1019780
:10089000F1F786EFB80143E00E9489026090FB0205
:1008A0007090FC028090FD029090FE0280E690EF36
:1008B000AFEFBFEF680E791E8A1E9B1EC401B30105
:1008C000A40193010E94640B1B012C016091F902A9
:1008D0007091FA02882777FD8095982F0E94640B0B
:1008E0007B018C018DE015950795F794E7948A9527
:1008F000D1F782E090E0A0E0B0E0E80EF91E0A1F18
:100900001B1FC201B101BCE095958795779567954E
:10091000BA95D1F72091FF0230910003442737FDAB
:100920004095542F0E94640BBC01992777FD909548
:10093000892FE60EF71E081F191FF2E0159507957F
:10094000F794E794FA95D1F780E090E8A0E0B0E062
:10095000E80EF91E0A1F1B1F2091F1023091F202CE
:1009600040E050E0C801B7010E94640BDC01CB01FC
:10097000EFE0B695A79597958795EA95D1F78C8383
:100980009D83AE83BF83A980BB24CC24DD24650175
:10099000BB24AA248A8190E0A0E0B0E0BA2FA92F5E
:1009A000982F8827A82AB92ACA2ADB2A8B8190E0A7
:1009B000A0E0B0E0A82AB92ACA2ADB2A55E0D594DB
:1009C000C794B794A7945A95D1F760910D0370918D
:1009D0000E03882777FD8095982FA40193010E942C
:1009E000640B7B018C014BE015950795F794E79418
:1009F0004A95D1F78091050390910603AA2797FDA8
:100A0000A095BA2F32E0880F991FAA1FBB1F3A95F5
:100A1000D1F7E80EF91E0A1F1B1F2091F302309137
:100A2000F402442737FD4095542FC201B1010E94C2
:100A3000640B27E195958795779567952A95D1F76A
:100A4000E60EF71E081F191FEE0CFF1C001F111FDA
:100A5000AE18BF08C00AD10AC601B5012AE638E1BE
:100A600040E050E00E94640B97FD0FC0660F771FB7
:100A7000881F991F2C813D814E815F810E94830BCD
:100A8000C901DA015C016D010CC02C813D814E81F0
:100A90005F810E94830B59016A01AA0CBB1CCC1C0C
:100AA000DD1C5527D7FC5A954D2D3C2D2B2DCA0109
:100AB000B9010E94640B2EED3BE040E050E00E9443
:100AC000640B7B018C01C601B50123E433EE4FEFCB
:100AD0005FEF0E94640BBC01992777FD9095892FE9
:100AE0006153714F8F4F9F4F78011127F7FC10957D
:100AF000012F6E0D7F1D801F911FE4E09595879556
:100B000077956795EA95D1F76A0D7B1D8C1D9D1D24
:100B10006093F5027093F6028093F7029093F802C7
:100B20000E9454026093F5027093F6028093F702DC
:100B30009093F80227960FB6F894DEBF0FBECDBF94
:100B4000CF91DF911F910F91FF90EF90DF90CF90A9
:100B5000BF90AF909F908F907F906F905F904F90DD
:100B60003F902F9008951F930E94CF0183E08A95B4
:100B7000F1F70E94BE020E94880310E00E941D044B
:100B80001F5F1531D9F71F9108950E941D046091D0
:100B9000F5027091F6028091F7029091F8020E949E
:100BA0006A0920E836EE45EC57E40E94BE0821E0D1
:100BB0003EED42E45EE30E944C0C9B01AC0160E020
:100BC00070E080E89FE30E9460082BE43AE34DEB7D
:100BD00057E30E94BE0820E030E040E050E00E9471
:100BE000910808950E941D046091F5027091F6022B
:100BF0008091F7029091F8020895982F92959F7036
:100C00009BB95D9A5C9A24EF31E0F9013197F1F7D5
:100C10005C98F9013197F1F78F708BB95D9A5C9A06
:100C2000C9010197F1F75C98C9010197F1F708959F
:100C3000982F92959F709BB95D985C9A24EF31E054
:100C4000F9013197F1F75C98F9013197F1F78F705D
:100C50008BB95C9AC9010197F1F75C98C9010197BA
:100C6000F1F7089581E00E941806089582E00E943D
:100C70001806089588E00E94180608958CE00E94E6
:100C8000180608958EE00E94180608958DE00E94CF
:100C9000180608958FE00E941806089580E80E94C3
:100CA0001806089580EC0E9418060895662319F02E
:100CB000613019F4805C80930F0380910F0380688A
:100CC0000E9418060895CF93DF93EC0103C00E94A1
:100CD000FD05219688818823D1F7DF91CF91089572
:100CE0008FEF8AB980E197E20197F1F724E02BB901
:100CF0005C9A8AEF90E0FC013197F1F75C98FC0177
:100D00003197F1F72BB95C9AFC013197F1F75C98B8
:100D1000FC013197F1F72BB95C9AFC013197F1F79F
:100D20005C980197F1F788E20E9418068CE00E9417
:100D3000180681E00E9418060895CF92DF92EF9284
:100D4000FF920F931F93DF93CF93CDB7DEB72A9710
:100D50000FB6F894DEBF0FBECDBF78940E94B305E6
:100D60000E9470060E94700680E091E00E94630677
:100D700080E061E00E9456068FE091E00E946306E9
:100D80007E010894E11CF11C89E1C82ED12C0E943F
:100D9000FF034AE022E087010E94F70B8AE191E01D
:100DA0000E946306C7010E94630688E291E00E94E8
:100DB00063068FE291E00E9463060E94F205A7019C
:100DC0002AE030E00E94180C82E391E00E94630662
:100DD000C7010E9463068DE391E00E9463068FE2E3
:100DE00091E00E9463060E94C5054AE022E00E944D
:100DF000F70B81E491E00E946306C7010E9463063D
:100E00008CE491E00E9463068FE291E00E94630609
:100E10008FE291E00E94630688E99AE3F601319738
:100E2000F1F70197D9F7B3CFA0E0B0E0EAE1F7E03E
:100E30000C94C00BDC012B01FA019C91923008F458
:100E400039C1EB018881823008F433C1943069F4F0
:100E5000843009F02FC111969C91119789819817C0
:100E600009F428C1AFE4B1E025C1843009F421C1FF
:100E70008230A9F4923009F01DC19A01AD0188E0D9
:100E8000EA010990AE01E90109929E018150C1F782
:100E9000E201898111969C918923818308C1923056
:100EA00009F407C112962D903C901397EB018A81AB
:100EB0009B811496AD90BD90CD90DC901797EC80FF
:100EC000FD800E811F819101281B390BB90137FF6D
:100ED00004C066277727621B730B603271050CF024
:100EE00061C0121613066CF537014801062E04C0C6
:100EF00096948794779467940A94D2F721E030E02F
:100F000040E050E004C0220F331F441F551F6A9574
:100F1000D2F721503040404050402E213F21402305
:100F20005123211531054105510521F021E030E023
:100F300040E050E079018A01E628F72808291929BC
:100F40003CC0232BD1F1260E371E35014601062E5B
:100F500004C096948794779467940A94D2F721E01A
:100F600030E040E050E004C0220F331F441F551F03
:100F70006A95D2F721503040404050402A213B2111
:100F80004C215D21211531054105510521F021E05C
:100F900030E040E050E059016A01A628B728C8288F
:100FA000D9280BC0821593052CF01C01AA24BB2460
:100FB000650103C0EE24FF24870111969C91D201A4
:100FC00011968C91981709F445C0992339F0A8011E
:100FD00097012A193B094C095D0906C0A601950134
:100FE0002E193F09400B510B57FD08C01182338267
:100FF000228224833583468357831DC081E0818309
:101000003382228288279927DC01821B930BA40B51
:10101000B50B84839583A683B7830DC0220F331F3E
:10102000441F551F248335834683578382819381D0
:101030000197938382832481358146815781DA0128
:10104000C9010197A109B1098F5F9F4FAF4FBF43FE
:1010500028F30BC0918333822282EA0CFB1C0C1D07
:101060001D1DE482F5820683178383E0808324813B
:1010700035814681578157FF1AC0C901AA2797FDBC
:10108000A095BA2F81709070A070B070569547955A
:1010900037952795822B932BA42BB52B848395838F
:1010A000A683B78382819381019693838283DF0134
:1010B00001C0D201CD01CDB7DEB7E2E10C94DC0B6B
:1010C000A0E2B0E0E6E6F8E00C94CC0B69837A830A
:1010D0008B839C832D833E834F835887E9E0EE2EDC
:1010E000F12CEC0EFD1ECE010196B7010E94EC0A18
:1010F0008E010F5E1F4FCE010596B8010E94EC0ACB
:101100008A8991E089278A8BC701B801AE01475EC1
:101110005F4F0E9414070E94170AA096E6E00C9405
:10112000E80BA0E2B0E0E7E9F8E00C94CC0B6983AF
:101130007A838B839C832D833E834F835887F9E08A
:10114000EF2EF12CEC0EFD1ECE010196B7010E9490
:10115000EC0A8E010F5E1F4FCE010596B8010E946A
:10116000EC0AC701B801AE01475E5F4F0E94140749
:101170000E94170AA096E6E00C94E80BA8E1B0E004
:10118000E4ECF8E00C94C80B69837A838B839C832E
:101190002D833E834F835887B9E0EB2EF12CEC0E64
:1011A000FD1ECE010196B7010E94EC0A8E010F5E72
:1011B0001F4FCE010596B8010E94EC0A2985223006
:1011C00008F47EC03989323010F4B8017CC08A85B9
:1011D0009A8989278A87243011F0223031F4231725
:1011E00009F06EC06FE471E06EC0343039F41D86D2
:1011F0001E861F86188A1C861B8604C0323021F486
:1012000084E08987B7015FC02B853C858B899C89E9
:10121000281B390B3C872B87ED84FE840F851889AA
:10122000AD88BE88CF88D88CEA14FB040C051D0558
:1012300040F4EE0CFF1C001F111F215030403C8772
:101240002B8720E030E040E050E080E090E0A0E03C
:10125000B0E460E070E0EA14FB040C051D0540F00A
:10126000282B392B4A2B5B2BEA18FB080C091D098C
:10127000B695A79597958795EE0CFF1C001F111F3B
:101280006F5F7F4F6F31710531F7DA01C9018F77D9
:101290009070A070B07080349105A105B10561F423
:1012A00027FD0AC0E114F1040105110529F0205CB5
:1012B0003F4F4F4F5F4F20782D873E874F87588B8A
:1012C000BE01675F7F4FCB010E94170A6896EAE074
:1012D0000C94E40BA8E0B0E0E0E7F9E00C94C90B53
:1012E0009B01AC0183E08983DA01C9018827B7FD3E
:1012F00083959927AA27BB27B82E211531054105CB
:10130000510519F482E089833AC08823A9F020307E
:1013100080E0380780E0480780E8580729F460E05B
:1013200070E080E09FEC30C0EE24FF248701E21AD9
:10133000F30A040B150B02C079018A018EE1C82E55
:10134000D12CDC82CB82ED82FE820F831887C8010C
:10135000B7010E94C80901971816190684F4082ECF
:1013600004C0EE0CFF1C001F111F0A94D2F7ED827F
:10137000FE820F831887C81AD90ADC82CB82BA8210
:10138000CE0101960E94170A2896E9E00C94E50B1D
:10139000EF92FF920F931F937B018C0180E0E81680
:1013A00080E0F80681E0080780E0180788F48FEFF6
:1013B000E816F1040105110531F028F088E090E00D
:1013C000A0E0B0E017C080E090E0A0E0B0E012C084
:1013D00080E0E81680E0F80680E0080781E0180762
:1013E00028F088E190E0A0E0B0E004C080E190E067
:1013F000A0E0B0E020E230E040E050E0281B390BF4
:101400004A0B5B0B04C016950795F794E7948A95F1
:10141000D2F7F701E95AFE4F8081281B31094109B3
:101420005109C9011F910F91FF90EF900895DF922C
:10143000EF92FF920F931F93FC01E480F5800681E9
:101440001781D1808081823048F480E090E0A0E173
:10145000B0E0E82AF92A0A2B1B2BA5C0843009F436
:101460009FC0823021F4EE24FF24870105C0E114DF
:10147000F1040105110519F4E0E0F0E096C0628185
:1014800073819FEF623879070CF05BC022E83FEF71
:10149000261B370B2A3131052CF020E030E040E0EC
:1014A00050E02AC0B801A701022E04C076956795C6
:1014B000579547950A94D2F781E090E0A0E0B0E01C
:1014C00004C0880F991FAA1FBB1F2A95D2F7019746
:1014D000A109B1098E219F21A023B1230097A10565
:1014E000B10521F081E090E0A0E0B0E09A01AB010D
:1014F000282B392B4A2B5B2BDA01C9018F7790708F
:10150000A070B07080349105A105B10539F427FFB2
:1015100009C0205C3F4F4F4F5F4F04C0215C3F4FDD
:101520004F4F5F4FE0E0F0E02030A0E03A07A0E04E
:101530004A07A0E45A0710F0E1E0F0E079018A01DF
:1015400027C06038710564F5FB01E158FF4FD801F1
:10155000C7018F779070A070B07080349105A1059D
:10156000B10539F4E7FE0DC080E490E0A0E0B0E002
:1015700004C08FE390E0A0E0B0E0E80EF91E0A1F7F
:101580001B1F17FF05C016950795F794E794319632
:1015900087E016950795F794E7948A95D1F705C0EB
:1015A000EE24FF248701EFEFF0E06E2F67956627AA
:1015B0006795902F9F77D794DD24D7948E2F8695AB
:1015C000492F462B582F5D29B701CA011F910F9152
:1015D000FF90EF90DF900895FC01DB014081518185
:1015E0002281622F6F7770E0221F2227221F9381B2
:1015F000892F880F822B282F30E0991F9927991F58
:1016000011969C93119721153105A9F541155105A6
:101610006105710511F482E037C082E89FEF1396EF
:101620009C938E9312979A01AB0167E0220F331FB0
:10163000441F551F6A95D1F783E08C930DC0220F8C
:10164000331F441F551F12968D919C91139701973C
:1016500013969C938E931297203080E0380780E099
:10166000480780E4580758F314962D933D934D9303
:101670005C93179708952F3F310579F44115510573
:101680006105710519F484E08C93089564FF03C02B
:1016900081E08C9312C01C9210C02F5730401396DB
:1016A0003C932E93129783E08C9387E0440F551F51
:1016B000661F771F8A95D1F7706414964D935D93DA
:1016C0006D937C9317970895629FD001739FF001EB
:1016D000829FE00DF11D649FE00DF11D929FF00DC2
:1016E000839FF00D749FF00D659FF00D9927729FF9
:1016F000B00DE11DF91F639FB00DE11DF91FBD0184
:10170000CF0111240895A1E21A2EAA1BBB1BFD01D3
:101710000DC0AA1FBB1FEE1FFF1FA217B307E407D0
:10172000F50720F0A21BB30BE40BF50B661F771F28
:10173000881F991F1A9469F7609570958095909508
:101740009B01AC01BD01CF01089597FB092E052631
:101750000ED057FD04D0D7DF0AD0001C38F45095C6
:101760004095309521953F4F4F4F5F4F0895F6F7C5
:1017700090958095709561957F4F8F4F9F4F0895FD
:101780002F923F924F925F926F927F928F929F9291
:10179000AF92BF92CF92DF92EF92FF920F931F937F
:1017A000CF93DF93CDB7DEB7CA1BDB0B0FB6F89430
:1017B000DEBF0FBECDBF09942A88398848885F8470
:1017C0006E847D848C849B84AA84B984C884DF80E1
:1017D000EE80FD800C811B81AA81B981CE0FD11DC5
:1017E0000FB6F894DEBF0FBECDBFED010895EF92A6
:1017F000FF920F931F93F22FF02E47FD02C0E4E0FB
:1018000001C0E4E1242F332727FD309537FF03C0C3
:10181000309521953F4F4F2D512F0F2FEE2E0E94C7
:10182000980C8F2D912F1F910F91FF90EF9008959D
:10183000FA01CF93FF93EF93223044F1253234F530
:10184000C22FE894CA3049F497FB3EF490958095F6
:10185000709561957F4F8F4F9F4F2C2F33274427D3
:101860005527FF93EF930E94830BEF91FF91605DEB
:101870006A330CF0695D6193B901CA016050704030
:101880008040904051F716F4CDE2C19310828F91C1
:101890009F91CF910C94D20EFA01EE0FFF1F30965C
:1018A0002105310599F16115710561F48038BFE3B7
:1018B0009B0749F168949038810561F08038BFEF4B
:1018C0009B0741F0992342F5FF3FE10531052105D2
:1018D00011F1E8940894E795D901AA2329F4AB2FD4
:1018E000BE2FF85FD0F310C0FF5F70F4A695E0F74D
:1018F000F73950F019F0FF3A38F49F779F930CD0E6
:101900000F9007FC905808953EF093C260E070E09D
:1019100080E89FE308954FE79F775F934F933F934E
:101920002F931AD32F913F914F915F9188D34FC23C
:10193000A9E0B0E0EEE9FCE00C94C40B6A01122FC0
:10194000A02EBE2C2BE3201718F42CE3922E02C0FD
:10195000902E9394AE014F5F5F4F27E0092D0E94B8
:10196000FA0DBC018981E82EFF24C70189709070AF
:10197000019711F4ADE209C0B1FE02C0ABE205C0AF
:10198000B0FC02C0A0E001C0A0E2E3FE3BC0AA237D
:1019900011F423E001C024E0211710F020E002C080
:1019A000121B212FEB2CB4FE02C0322F0AC0F6010D
:1019B000322F80E202C0819331503323E1F7C20E0F
:1019C000D11CAA2319F0F601A1936F01F6013196FB
:1019D000E2FE05C09EE4D6019C9381E404C09EE62D
:1019E000D6019C9381E611968C9391833296DF0108
:1019F000832F90E202C09D9381508823E1F7E30F8B
:101A0000F11D40C0E2FE42C0AA2311F423E001C050
:101A100024E0211710F020E002C0121B212FEB2C34
:101A2000B4FE02C0922F0AC0F601922F80E202C0DB
:101A3000819391509923E1F7C20ED11CAA2319F08A
:101A4000F601A1936F01F6013196E2FE08C089E428
:101A5000D6018C938EE411968C9386E407C089E6B8
:101A6000D6018C938EE611968C9386E6818332960E
:101A7000DF01892F20E202C02D9381508823E1F7F6
:101A8000E90FF11D10822EEF3FEFAFC016161706BB
:101A90001CF041E050E003C0AB014F5F5F4FAA2054
:101AA00019F480E090E003C08A2D90E0019620E0D8
:101AB00030E0AA2311F021E030E0240F351F280F79
:101AC000391F812F90E02817390714F020E002C059
:101AD000121B212F4B2D50E0CA0180719070B4FC75
:101AE0000DC0B3FC0BC0F601322F40E202C041939F
:101AF00031503323E1F7C20ED11C01C0322FAA238B
:101B000019F0F601A1936F01892B11F0132F0AC070
:101B1000F601132F80E302C0819311501123E1F7E6
:101B2000C30ED11C092D060FBA8090E1892E912C8D
:101B30008E209F20E4FE04C0F1E3BF1609F401509B
:101B4000101614F001E003C0093008F008E09B0112
:101B500077FF02C020E030E0CB010196821B930B9F
:101B6000FE013196E80FF91F8EE2F82E3B01601A54
:101B700071088A2D90E044275527481B590B8FEF99
:101B80002F3F380719F4D601FD926D0162177307D4
:101B90002CF06216730614F4808101C080E321509A
:101BA000304031962417350724F0D6018D936D010E
:101BB000E6CF2617370749F4B5E3BB1528F0BB1667
:101BC00021F48114910409F481E3F6018193D60193
:101BD000812F90E202C09C93815011968823D9F7FF
:101BE000E10FF11D108220E030E0C9012996EEE0FE
:101BF0000C94E00B283008F027E03327DA01990F26
:101C0000311D87FD916000966105710539F43260E0
:101C10002E5F3D9330E32A95E1F708959F3F30F022
:101C200080387105610509F03C5F3C5F3D93913060
:101C300008F08068911DDF93CF931F930F93FF925D
:101C4000EF92192F987F9695E92F96959695E90F23
:101C5000FF27EC5BFE4F99273327EE24FF24A701D3
:101C6000E70105900894079428F4360FE71EF81E44
:101C7000491F511D660F771F881F991F0694A1F7F2
:101C80000590079428F4E70EF81E491F561FC11D42
:101C9000770F881F991F661F0694A1F70590079478
:101CA00028F4F80E491F561FC71FD11D880F991F12
:101CB000661F771F0694A1F70590079420F4490F3B
:101CC000561FC71FD81F990F661F771F881F0694BE
:101CD000A9F784911095177041F0D695C79557953F
:101CE0004795F794E7941A95C1F7EAEEF0E0689407
:101CF0001590159135916591959105907FE27395B9
:101D0000E118F10A430B560BC90BD009C0F7E10CDF
:101D1000F11E431F561FC91FD01D7EF4703311F4EE
:101D20008A95E6CFE894015030F0080F0AF40027B6
:101D3000021708F4202F2395022F7A3328F079E335
:101D40007D932A95E9F710C07D932A9589F606942C
:101D500097956795379517951794E118F10A430BF6
:101D6000560BC90BD00998F023957E9173957A3361
:101D700008F070E37C932013B8F77E9170617D9337
:101D800030F0839571E37D9370E32A95E1F7112498
:101D9000EF90FF900F911F91CF91DF91992787FDD1
:101DA00090950895DC01FC01672F71917723E1F78D
:101DB000329704C07C916D9370836291AE17BF0718
:101DC000C8F3089519F40EF02EC07DC032C061D062
:101DD000C8F39638C0F707F80F92E8942BE33AEA75
:101DE00048EB5FE73AD10F920F920F924DB75EB773
:101DF0000F92F2D0E8E6F0E01FD04F915F91EF91A3
:101E0000FF91E595EE1FFF1F49F0FE57E06844275C
:101E1000EE0F441FFA95E1F74195550B64D00F90F2
:101E200007FE58C0089597F99F6780E870E060E06A
:101E300008959FEF80EC0895DF93CF931F930F9346
:101E4000FF92EF92DF927B018C01689405C0DA2E3D
:101E5000EF0101D1FE01E894A591259135914591BD
:101E60005591AEF3EF015BD1FE019701A801DA9421
:101E700079F7DF90EF90FF900F911F91CF91DF9155
:101E8000089557FD9058440F551F59F05F3F71F06A
:101E90004795880F97FB991F61F09F3F79F08795D1
:101EA0000895121613061406551FF2CF4695F1DF5A
:101EB00008C0161617061806991FF1CF86957105EA
:101EC000610508940895E894BB2766277727CB011E
:101ED00097F908959B01AC0160E070E080E89FE312
:101EE0004DC9A1CF6FC1D5DFE8F39923D9F3940F82
:101EF000511DBBF39150504094F059F0882332F0BB
:101F0000660F771F881F91505040C1F79E3F5105C3
:101F100044F7880F911D9695879597F908955F3F2F
:101F2000ACF0983E9CF0BB27869577956795B79562
:101F300008F4B1609395C1F7BB0F58F711F460FF37
:101F4000E8CF6F5F7F4F8F4F9F4FE3CFBDCF0EF036
:101F500039C16FCF689467CF9CDFC8F39923D1F361
:101F6000C6F3DF93CF931F930F93FF92C92FDD2703
:101F700088232AF02197660F771F881FDAF720E061
:101F800030E040E85FEB9FE3883920F0803E30F09E
:101F900021968F77C6D8E0E9F0E003C0C2D8EDEB18
:101FA000F0E04ADF8B01BE01EC01FB2E6F57710997
:101FB0007595771F880B990B8DD928E132E741E39E
:101FC0005FE349D0AF2D9801AE01FF900F911F91B3
:101FD000CF91DF91A4D012C1FA01DC01AA0FBB1F7F
:101FE0009B01AC01BF5728F42227332744275078A0
:101FF0001FC0B75188F4AB2F00244695379527951D
:10200000011CA395D2F3002069F0220F331F441F57
:10201000B395DAF30DD054C861307105A0E88A0792
:10202000B94630F49B01AC01662777278827907862
:10203000309621F0208331834283538308950BD05F
:10204000DDC0CED028F0D3D018F0952309F0EBCE28
:10205000F0CE112439CF15DFA0F3959FD1F3950F62
:1020600050E0551F629FF001729FBB27F00DB11D1C
:10207000639FAA27F00DB11DAA1F649F6627B00DAC
:10208000A11D661F829F2227B00DA11D621F739F95
:10209000B00DA11D621F839FA00D611D221F749FA3
:1020A0003327A00D611D231F849F600D211D822FEA
:1020B000762F6A2F11249F5750408AF0E1F0882331
:1020C0004AF0EE0FFF1FBB1F661F771F881F91503E
:1020D0005040A9F79E3F510570F0A5CEF5CE5F3F69
:1020E000ECF3983EDCF3869577956795B795F79571
:1020F000E7959F5FC1F7FE2B880F911D96958795F9
:1021000097F908956DD030F072D020F031F49F3FF0
:1021100011F41EF48ECE0EF4E095E7FB84CEE92F89
:10212000B0DE80F3BA17620773078407950718F0CB
:1021300071F49EF5C8CE0EF4E0950B2EBA2FA02DAB
:102140000B01B90190010C01CA01A0011124FF2764
:10215000591B99F0593F50F4503E68F11A16F0405F
:10216000A22F232F342F4427585FF3CF469537955E
:102170002795A795F0405395C9F77EF41F16BA0B23
:10218000620B730B840BBAF09150A1F0FF0FBB1FD1
:10219000661F771F881FC2F70EC0BA0F621F731F1A
:1021A000841F48F4879577956795B795F7959E3F77
:1021B00008F0B3CF9395880F08F09927EE0F979505
:1021C000879508959F3F31F0915020F4879577953A
:1021D0006795B795880F911D9695879597F90895FE
:1021E00000240A94161617061806090608950024F6
:1021F0000A9412161306140605060895092E039470
:10220000000C11F4882352F0BB0F40F4BF2B11F4E3
:1022100060FF04C06F5F7F4F8F4F9F4F0895F8940A
:02222000FFCFEE
:1022220047756E6E6172204B656C6465727300490E
:102232004D54484531204C43440074656D706572BD
:1022420061747572653A2000204320646567000D51
:102252000A0070726573737572653A2000205061CE
:1022620000616C7469747564653A2000204D000049
:102272000000000000000000010202030303030447
:102282000404040404040405050505050505050503
:1022920005050505050505060606060606060606E3
:1022A20006060606060606060606060606060606CC
:1022B20006060606060606070707070707070707B3
:1022C200070707070707070707070707070707079C
:1022D200070707070707070707070707070707078C
:1022E200070707070707070707070707070707077C
:1022F2000707070707070708080808080808080863
:10230200080808080808080808080808080808084B
:10231200080808080808080808080808080808083B
:10232200080808080808080808080808080808082B
:10233200080808080808080808080808080808081B
:10234200080808080808080808080808080808080B
:1023520008080808080808080808080808080808FB
:1023620008080808080808080808080808080808EB
:0823720008080808080808002B
:00000001FF
